:020000040000fa
:080000000001040000000000f3
:020000040000fa
:0400080004020000ee
:020000040000fa
:04000c0016020000d8
:020000040000fa
:0400100026020000c4
:020000040000fa
:040014000c020000da
:020000040000fa
:040018001e020000c4
:020000040000fa
:04001c002e020000b0
:020000040000fa
:040020002e020000ac
:020000040000fa
:040024002e020000a8
:020000040000fa
:040028002e020000a4
:020000040000fa
:04002c002e020000a0
:020000040000fa
:040030002e0200009c
:020000040000fa
:040034002e02000098
:020000040000fa
:040038002e02000094
:020000040000fa
:04003c002e02000090
:020000040000fa
:040040002e0200008c
:020000040000fa
:040044002e02000088
:020000040000fa
:040048002e02000084
:020000040000fa
:04004c002e02000080
:020000040000fa
:040050002e0200007c
:020000040000fa
:040054002e02000078
:020000040000fa
:040058002e02000074
:020000040000fa
:04005c002e02000070
:020000040000fa
:040060002e0200006c
:020000040000fa
:040064002e02000068
:020000040000fa
:040068002e02000064
:020000040000fa
:04006c002e02000060
:020000040000fa
:040070002e0200005c
:020000040000fa
:040074002e02000058
:020000040000fa
:040078002e02000054
:020000040000fa
:04007c002e02000050
:020000040000fa
:040080002e0200004c
:020000040000fa
:040084002e02000048
:020000040000fa
:040088002e02000044
:020000040000fa
:04008c002e02000040
:020000040000fa
:040090002e0200003c
:020000040000fa
:040094002e02000038
:020000040000fa
:040098002e02000034
:020000040000fa
:04009c002e02000030
:020000040000fa
:0400a0002e0200002c
:020000040000fa
:0400a4002e02000028
:020000040000fa
:0400a8002e02000024
:020000040000fa
:0400ac002e02000020
:020000040000fa
:0400b0002e0200001c
:020000040000fa
:0400b4002e02000018
:020000040000fa
:0400b8002e02000014
:020000040000fa
:0400bc002e02000010
:020000040000fa
:0400c0002e0200000c
:020000040000fa
:0400c4002e02000008
:020000040000fa
:0400c8002e02000004
:020000040000fa
:0400cc002e02000000
:020000040000fa
:0400d0002e020000fc
:020000040000fa
:0400d4002e020000f8
:020000040000fa
:0400d8002e020000f4
:020000040000fa
:0400dc002e020000f0
:020000040000fa
:0400e0002e020000ec
:020000040000fa
:0400e4002e020000e8
:020000040000fa
:0400e8002e020000e4
:020000040000fa
:0400ec002e020000e0
:020000040000fa
:0400f0002e020000dc
:020000040000fa
:0400f4002e020000d8
:020000040000fa
:0400f8002e020000d4
:020000040000fa
:0400fc002e020000d0
:020000040000fa
:040100002e020000cb
:020000040000fa
:040104002e020000c7
:020000040000fa
:040108002e020000c3
:020000040000fa
:04010c002e020000bf
:020000040000fa
:040110002e020000bb
:020000040000fa
:040114002e020000b7
:020000040000fa
:040118002e020000b3
:020000040000fa
:04011c002e020000af
:020000040000fa
:040120002e020000ab
:020000040000fa
:040124002e020000a7
:020000040000fa
:040128002e020000a3
:020000040000fa
:04012c002e0200009f
:020000040000fa
:040130002e0200009b
:020000040000fa
:040134002e02000097
:020000040000fa
:040138002e02000093
:020000040000fa
:04013c002e0200008f
:020000040000fa
:040140002e0200008b
:020000040000fa
:040144002e02000087
:020000040000fa
:040148002e02000083
:020000040000fa
:04014c002e0200007f
:020000040000fa
:040150002e0200007b
:020000040000fa
:040154002e02000077
:020000040000fa
:040158002e02000073
:020000040000fa
:04015c002e0200006f
:020000040000fa
:040160002e0200006b
:020000040000fa
:040164002e02000067
:020000040000fa
:040168002e02000063
:020000040000fa
:04016c002e0200005f
:020000040000fa
:040170002e0200005b
:020000040000fa
:040174002e02000057
:020000040000fa
:040178002e02000053
:020000040000fa
:04017c002e0200004f
:020000040000fa
:040180002e0200004b
:020000040000fa
:040184002e02000047
:020000040000fa
:040188002e02000043
:020000040000fa
:04018c002e0200003f
:020000040000fa
:040190002e0200003b
:020000040000fa
:040194002e02000037
:020000040000fa
:040198002e02000033
:020000040000fa
:04019c002e0200002f
:020000040000fa
:0401a0002e0200002b
:020000040000fa
:0401a4002e02000027
:020000040000fa
:0401a8002e02000023
:020000040000fa
:0401ac002e0200001f
:020000040000fa
:0401b0002e0200001b
:020000040000fa
:0401b4002e02000017
:020000040000fa
:0401b8002e02000013
:020000040000fa
:0401bc002e0200000f
:020000040000fa
:0401c0002e0200000b
:020000040000fa
:0401c4002e02000007
:020000040000fa
:0401c8002e02000003
:020000040000fa
:0401cc002e020000ff
:020000040000fa
:0401d0002e020000fb
:020000040000fa
:0401d4002e020000f7
:020000040000fa
:0401d8002e020000f3
:020000040000fa
:0401dc002e020000ef
:020000040000fa
:0401e0002e020000eb
:020000040000fa
:0401e4002e020000e7
:020000040000fa
:0401e8002e020000e3
:020000040000fa
:0401ec002e020000df
:020000040000fa
:0401f0002e020000db
:020000040000fa
:0401f4002e020000d7
:020000040000fa
:0401f8002e020000d3
:020000040000fa
:0401fc002e020000cf
:020000040000fa
:100200002f8220000eff27000e0188000000000052
:10021000000020000000e000020032000001200089
:1002200020028800140007008e0007000000e00094
:1002300003003a0040342000010020000200370093
:100240000000200001002000810f7000010032003a
:1002500014000700000020000000e000020032004f
:100260000000020000000000540302000000000033
:100270000040da000000fe004440a90020002000f9
:100280000000e00003003200100020009001880010
:100290004440a800000006008a1f78008b1f7800e9
:1002a00000000600a1028800800478000000eb0036
:1002b0001f003700e284440054a0b4009905ba003e
:1002c000e284440054a0b4009906ba00e2844400d9
:1002d00054a0b4000006eb00476fde00fd07b2003b
:1002e000ae018800636ce10003003a00eaff0700fa
:1002f0000000eb000e003700606ce10008003a00df
:10030000004deb000a05e800020039003420ec0043
:100310000af0a0008b05e900f9ff3e000400370059
:100320006168e100010032000086eb000b0007006d
:1003300019c7ba001905ba000e04e00003003a001c
:100340000a00e000dbff3a0000000600fe07b200f2
:10035000ae0288008a047800f5ff37000cd0a300b5
:10036000e20f4d001c00390089027800354dba00bb
:100370000a05e800020039003420ec000af0a00071
:100380008b05e9000f003200254dba000a05e80090
:10039000020039003420ec000af0a0008b05e900cf
:1003a000080032000c00e0000600320015cdba0053
:1003b0000a05e800020039003420ec000af0a00031
:1003c0008b05e9008984e80054a0b4000b00e0002c
:1003d000e2ff3a00000006009902ba00055d7800cd
:1003e0008b05e900f7ff3200c82ade00055d7800c2
:1003f0008b05e900f3ff32000c00e000f1ff320052
:1004000019ddba00eeff37003600f8008020a900a1
:100410000000eb00910007003600f8009300070091
:100420008040a900100020008c0007003600f80072
:100430008060a90020002000880007003600f80036
:100440008080a90030002000840007003600f800fa
:100450008600a90070002000800007000040da003c
:080460000000fe000000050091
:020000040000fa
:100468000000fa006626ef0000002800d03388005c
:100478008e26ef004080200010358800b626ef0059
:10048800ca26ef00de26ef00f06f2c00103388003c
:100498000080eb00b0338800e0012f005034880062
:1004a800f0ff2e00f0348800f03f200090358800df
:1004b800f01b230030368800f03c2f00d03688002f
:1004c8007426ef008826ef009c26ef00b026ef0088
:1004d800c426ef00d826ef00ec26ef007226ef00c6
:1004e8008626ef009a26ef00ae26ef00c226ef0020
:1004f800d626ef00ea26ef006826ef007c26ef00fc
:100508009026ef00a426ef00b826ef00cc26ef00d7
:10051800e026ef00006c200050338800f0f32f0035
:10052800f03388000001260090348800000c200079
:100538003035880000212000d0358800003c20009c
:10054800103788000080fa00000006000000fa005a
:1005580000002300100888000621ef006821ef0042
:100568006a21ef006c21ef000821ef0000702000e5
:10057800500888000c21ef000e21ef003200200007
:1005880080072000a109200013102000804978006e
:100598008149780082497800120020006004200018
:1005a80071052000031020008049780081497800f7
:1005b80082497800000000000008800061006000a7
:1005c8000000e000fcff3a000080fa00000006008e
:1005d8000000fa0000002300100888000621ef0040
:1005e8006821ef006a21ef006c21ef000821ef007d
:1005f80000702000500888000c21ef000e21ef0049
:100608003200200080072000a109200013102000dc
:1006180080497800814978008249780012002000da
:100628006004200071052000031020008049780034
:1006380081497800824978000000000000088000a5
:10064800610060000000e000fcff3a000080fa0052
:1006580000000600000f78009e0078000140880026
:10066800ffff37000000fa00208020008007780094
:10067800a0812000000188000080fa000000060028
:020000040000fa
:1006880002080000200000008000000000080000b0
:100698000200000082000000ffff000000000000d0
:020000040000fa
:1006a8000200fa0005000700a00a2000000f7800e9
:1006b800a386a900a386a800fdff37000000fa0062
:1006c80067ff0700a1ff0700020007000080fa008b
:1006d800000006000000fa000080fa000000060092
:020000040000fa
:020000040015e5
:047e0000ffff000080
:020000040000fa
:020000040015e5
:047e2000ff1f000040
:020000040000fa
:020000040015e5
:047e300088ffff00c8
:020000040000fa
:020000040015e5
:047e380071ffff00d7
:020000040000fa
:020000040015e5
:047e40009fffff00a1
:020000040000fa
:020000040015e5
:047e4800ffffff0039
:020000040000fa
:020000040015e5
:047e5000deffff0052
:020000040000fa
:020000040015e5
:047e5800ffffff0029
:020000040000fa
:020000040100f9
:04300000ffffff00cf
:00000001FF
