:020000040000fa
:080000000001040000000000f3
:020000040000fa
:0400080010020000e2
:020000040000fa
:04000c0022020000cc
:020000040000fa
:0400100032020000b8
:020000040000fa
:0400140018020000ce
:020000040000fa
:040018002a020000b8
:020000040000fa
:04001c006802000076
:020000040000fa
:040020006802000072
:020000040000fa
:04002400680200006e
:020000040000fa
:04002800680200006a
:020000040000fa
:04002c006802000066
:020000040000fa
:040030006802000062
:020000040000fa
:040034003a0200008c
:020000040000fa
:04003800680200005a
:020000040000fa
:04003c006802000056
:020000040000fa
:040040006802000052
:020000040000fa
:04004400680200004e
:020000040000fa
:04004800680200004a
:020000040000fa
:04004c006802000046
:020000040000fa
:040050006802000042
:020000040000fa
:04005400680200003e
:020000040000fa
:04005800680200003a
:020000040000fa
:04005c006802000036
:020000040000fa
:040060006802000032
:020000040000fa
:04006400680200002e
:020000040000fa
:04006800680200002a
:020000040000fa
:04006c006802000026
:020000040000fa
:040070006802000022
:020000040000fa
:04007400680200001e
:020000040000fa
:04007800680200001a
:020000040000fa
:04007c006802000016
:020000040000fa
:040080006802000012
:020000040000fa
:04008400680200000e
:020000040000fa
:04008800680200000a
:020000040000fa
:04008c006802000006
:020000040000fa
:040090006802000002
:020000040000fa
:0400940068020000fe
:020000040000fa
:0400980068020000fa
:020000040000fa
:04009c0068020000f6
:020000040000fa
:0400a00068020000f2
:020000040000fa
:0400a40068020000ee
:020000040000fa
:0400a80068020000ea
:020000040000fa
:0400ac0068020000e6
:020000040000fa
:0400b00068020000e2
:020000040000fa
:0400b40068020000de
:020000040000fa
:0400b80068020000da
:020000040000fa
:0400bc0068020000d6
:020000040000fa
:0400c00068020000d2
:020000040000fa
:0400c40068020000ce
:020000040000fa
:0400c80068020000ca
:020000040000fa
:0400cc0068020000c6
:020000040000fa
:0400d00068020000c2
:020000040000fa
:0400d40068020000be
:020000040000fa
:0400d80068020000ba
:020000040000fa
:0400dc0068020000b6
:020000040000fa
:0400e00068020000b2
:020000040000fa
:0400e40068020000ae
:020000040000fa
:0400e80068020000aa
:020000040000fa
:0400ec0068020000a6
:020000040000fa
:0400f00068020000a2
:020000040000fa
:0400f400680200009e
:020000040000fa
:0400f800680200009a
:020000040000fa
:0400fc006802000096
:020000040000fa
:040100006802000091
:020000040000fa
:04010400680200008d
:020000040000fa
:040108006802000089
:020000040000fa
:04010c006802000085
:020000040000fa
:040110006802000081
:020000040000fa
:04011400680200007d
:020000040000fa
:040118006802000079
:020000040000fa
:04011c006802000075
:020000040000fa
:040120006802000071
:020000040000fa
:04012400680200006d
:020000040000fa
:040128006802000069
:020000040000fa
:04012c006802000065
:020000040000fa
:040130006802000061
:020000040000fa
:04013400680200005d
:020000040000fa
:040138006802000059
:020000040000fa
:04013c006802000055
:020000040000fa
:040140006802000051
:020000040000fa
:04014400680200004d
:020000040000fa
:040148006802000049
:020000040000fa
:04014c006802000045
:020000040000fa
:040150006802000041
:020000040000fa
:04015400680200003d
:020000040000fa
:040158006802000039
:020000040000fa
:04015c006802000035
:020000040000fa
:040160006802000031
:020000040000fa
:04016400680200002d
:020000040000fa
:040168006802000029
:020000040000fa
:04016c006802000025
:020000040000fa
:040170006802000021
:020000040000fa
:04017400680200001d
:020000040000fa
:040178006802000019
:020000040000fa
:04017c006802000015
:020000040000fa
:040180006802000011
:020000040000fa
:04018400680200000d
:020000040000fa
:040188006802000009
:020000040000fa
:04018c006802000005
:020000040000fa
:040190006802000001
:020000040000fa
:0401940068020000fd
:020000040000fa
:0401980068020000f9
:020000040000fa
:04019c0068020000f5
:020000040000fa
:0401a00068020000f1
:020000040000fa
:0401a40068020000ed
:020000040000fa
:0401a80068020000e9
:020000040000fa
:0401ac0068020000e5
:020000040000fa
:0401b00068020000e1
:020000040000fa
:0401b40068020000dd
:020000040000fa
:0401b80068020000d9
:020000040000fa
:0401bc0068020000d5
:020000040000fa
:0401c00068020000d1
:020000040000fa
:0401c40068020000cd
:020000040000fa
:0401c80068020000c9
:020000040000fa
:0401cc0068020000c5
:020000040000fa
:0401d00068020000c1
:020000040000fa
:0401d40068020000bd
:020000040000fa
:0401d80068020000b9
:020000040000fa
:0401dc0068020000b5
:020000040000fa
:0401e00068020000b1
:020000040000fa
:0401e40068020000ad
:020000040000fa
:0401e80068020000a9
:020000040000fa
:0401ec0068020000a5
:020000040000fa
:0401f00068020000a1
:020000040000fa
:0401f400680200009d
:020000040000fa
:0401f8006802000099
:020000040000fa
:0401fc006802000095
:020000040000fa
:100200004f8f20000eff27000e0188000000000025
:10021000000020000000e000020032000001200089
:100220002002880014000700ff0007000000e00023
:1002300003003a00a0512100010020000200370015
:100240000000200001002000810f7000010032003a
:1002500014000700000020000000e000020032004f
:100260000000020000000000701302000000000007
:100270000040da000000fe004440a900a006200073
:100280000000e00003003200002020009001880000
:100290004440a800000006008a1f78008b1f7800e9
:1002a00000000600a1028800800478000000eb0036
:1002b0001f003700e284440054a0b4009905ba003e
:1002c000e284440054a0b4009906ba00e2844400d9
:1002d00054a0b4000006eb00476fde00fd07b2003b
:1002e000ae018800636ce10003003a00eaff0700fa
:1002f0000000eb000e003700606ce10008003a00df
:10030000004deb000a05e800020039003420ec0043
:100310000af0a0008b05e900f9ff3e000400370059
:100320006168e100010032000086eb000b0007006d
:1003300019c7ba001905ba000e04e00003003a001c
:100340000a00e000dbff3a0000000600fe07b200f2
:10035000ae0288008a047800f5ff37000cd0a300b5
:10036000e20f4d001c00390089027800354dba00bb
:100370000a05e800020039003420ec000af0a00071
:100380008b05e9000f003200254dba000a05e80090
:10039000020039003420ec000af0a0008b05e900cf
:1003a000080032000c00e0000600320015cdba0053
:1003b0000a05e800020039003420ec000af0a00031
:1003c0008b05e9008984e80054a0b4000b00e0002c
:1003d000e2ff3a00000006009902ba00055d7800cd
:1003e0008b05e900f7ff3200c82ade00055d7800c2
:1003f0008b05e900f3ff32000c00e000f1ff320052
:1004000019ddba00eeff370004050400000000000b
:10041000000004000000000064060400000000006a
:100420003600f8008020a9000000eb00b80a0700a1
:100430003600f800ba0a07008040a900100020002a
:10044000b30a07003600f8008060a90020002000f1
:10045000af0a07003600f8008080a90030002000b5
:10046000ab0a07003600f8008600a90070002000e3
:10047000a70a07003600f800809fbe00829fbe00da
:10048000849fbe00869fbe000000fa00f7090700a7
:10049000d08e2000104078008040e800d08e2000f0
:1004a00001487800c08e200011c0b30001487800d8
:1004b0008860a9000080fa004f03be004f02be0012
:1004c0004f01be004f00be003600f900004006009c
:1004d0000040da000000fe000a00fa0011002000cf
:1004e000b1bf9f00c0bf9f006a8057002e06070063
:1004f0004fb897000080fa00000006000a00fa00da
:1005000051002000b1bf9f00c0bf9f006a8057000c
:10051000270607005fb897000080fa000000060079
:10052000889fbe0080047800904780000000e000b3
:1005300004003a000e0007000084eb000000e00019
:1005400008003500984780000900e00005003200ef
:1005500009004400060007000000e00001003d0023
:100560000084eb00080078004f04be000000060085
:10057000800078000100e00003003a000000200045
:1005800090478800000005000080eb00020020007a
:10059000828f500002003e00914788000000eb006f
:1005a000000006000800fa001007980021079800d4
:1005b0003207980000000000d11c800000102000cd
:1005c000008060000000e000fbff3200be009000f1
:1005d000010f78000e00370000000000d11c8000e1
:1005e00000102000008060000000e000fbff3200ef
:1005f0002e009000104078000000fb00e01c8800f6
:100600002e0090000000e800200798001e0fe9006f
:100610001e0078000000e000efff3a003e0090006e
:100620000080fa000000060000000500c1822000e2
:1006300000003700889fbe008a1f78000004be00bb
:10064000c900900069009000808f500005003900bb
:1006500009007800580007008080eb000000e000ef
:1006600016003500084578004900900008587800c9
:10067000c00498001900780000b8a30004003a00f4
:1006800000a8a30007003200ea4f540005003a001a
:10069000090078000d0007008080eb000000e000fa
:1006a00006003a0000c0200019006000020032007d
:1006b00049009000e00498008a80fb000100780067
:1006c0004f0578004f04be0000000600889fbe0062
:1006d0008a1f7800000478000800e0000d003a004e
:1006e000a8872000700544008004eb0058007800c3
:1006f0000000e00004003200f4ff07000000e0000a
:1007000001003d008084eb008a0f5400f7ff3a009f
:100710002500370000002200180060008004eb0074
:1007200021003200a80490000f0037000901510099
:10073000384090000000fb008900780099ff070016
:100740000000e00007003c002800900040049800f2
:1007500060049800500c98001890a0008084eb0072
:10076000110037008084440048019000828f5400bb
:10077000eeff3900280090004004980098007800af
:1007800002c020000281600001003a0038009000a1
:1007900001e8a30002003200600498000100370065
:1007a000500c98008004eb00090078004f05780099
:1007b0004f04be0000000600889fbe008a1f78001c
:1007c00000047800c8009000680190000000eb0071
:1007d000828f50003c003900180078002200290068
:1007e00002016000e20f51000700320001202400e6
:1007f0000000e00001003d0001202000008c70009e
:100800000080eb003000370002002600020060008c
:10081000820f500009003a0038009000808f50008d
:100820000600390008007800a8ff07008000780063
:100830000080eb000100e00023003a00180578007a
:1008400000c020000000650018003a00a8049000d5
:100850006002200008004000808f540013003a001e
:1008600000202000d8000700200498000000e000cd
:1008700005003a0029049800490498008904e8001a
:1008800039049800080037000a60a0000a0c7800bc
:10089000400498000120200080804000310498002e
:1008a000400c9800500c98000c00070028009000a5
:1008b0005004980038009000600498000000260062
:1008c000180c70000000eb004f0578004f04be00cc
:1008d0000000060040502000e5003700881f780027
:1008e000e88e20001804e00003003a00f9ff07003a
:1008f00020c0b300004c78004f04780000000600d0
:10090000889fbe0000047800080078006fff070091
:10091000800478000004200018006000020032000b
:1009200028009000430007000000eb00200498001e
:10093000384090000004e000050035000000fb0096
:10094000e5fe07000000e000010032008084eb00bb
:10095000181090000000e00008003200e7fe0700d9
:100960000000e000010032008084eb0018109000cd
:10097000300007000000eb00101498000008200071
:10098000180060000f003200a18720000000eb007b
:10099000d10f140005003a0000004000c18720007c
:1009a000008040000008eb00030037000000e80072
:1009b000e80f5000f6ff3a00080078001d0007001d
:1009c0000e003700000c780000c0eb0030449800a7
:1009d00060022000080040002004980040049800b5
:1009e00050049800400c980060049800500c980047
:1009f0007004980076004400000c9800090078000c
:100a00004f04be0000000600889fbe00c88820007a
:100a1000f0045400480078000000e00001003200bb
:100a2000b7ff0700890f5400faff3a004f04be00d9
:100a3000000006000000e0002f003200c001780036
:100a4000e38f51002c0036000308a3002a003a006f
:100a5000514780000100e00002003200810f500089
:100a6000040031001100980050478800160037003c
:100a700082007800110190000200e00002003200c4
:100a8000800f5100faff3900110278008482400083
:100a9000850f500018003900808f520003003a0083
:100aa0008308420001007800070037000200e000e0
:100ab0000300320083014000830f51000e00390013
:100ac0001200980090009800900090000100e00053
:100ad0000900320010014000828f500006003a00e9
:100ae000828e20000009eb001001780011084100ff
:100af000910090001100980000000600889fbe0041
:100b000000047800414780000100e000020032004c
:100b1000010078000d00370051478000a08e2000b2
:100b200004003700910f5400250036000180e800d2
:100b3000910090000100e000faff3a001000370039
:100b4000920f54001e0036000280e8001001780069
:100b50000200e000faff3a001101780051478000de
:100b6000a08e200004003700910f540014003600be
:100b70000180e80091009000828f5000faff3a0057
:100b800089478000888f5400010031008804780074
:100b900009007800420007000000e00004003a006d
:100ba000888f5400050032008904d100f5ff37001a
:100bb000091878009fff0700d2ff37000000eb0004
:100bc0004f04be0000000600881f78006304400048
:100bd0000800a1008000eb00800f540021003600c7
:100be000e30f540001003e00480020000800780098
:100bf000c2ff07008000eb000000e0001900320097
:100c0000900078009101780064815100880f5100b4
:100c1000030031001101900002087800070037003e
:100c200008814000020878009101900013019800ab
:100c3000100178001109140088087800100178006c
:100c40000000eb000200e00004003200920190007e
:100c50000300e000010032000280e8004047880005
:100c60008180e800010078004f0478000000060051
:100c7000010020000100e0000800320001008000b7
:100c80000100e000050032008100e9000100880059
:100c9000818040000200800000b178000000060062
:100ca000800078000000eb000100e0000500340047
:100cb000010078001afe0700e10f400001003a0031
:100cc0000000eb0000000600889fbe0000047800d2
:100cd000010078008204780088017800090178001a
:100ce00011002000d2010700890f500001003200de
:100cf0000004eb00080078004f04be00000006006e
:100d00000000fa00e88157004fb99700c182200027
:100d100040662000020007000080fa000000060084
:100d20006200fa00889fbe008a1f780000057800e4
:100d300081047800020478008300780080f92f0095
:100d40000f004000160407009a979f00a9979f0084
:100d50000000eb00b09f9f001885fb008a04fb0099
:100d60000a05ea004f55de0050022000808f540033
:100d70000d003200e10f55000b003a000a01780027
:100d8000880078002f9097009f9197000300010042
:100d9000a0979f000000e0008e0032003f9897006f
:100da0000000e800b09f9f000a04440050022000a9
:100db000808f5400040032000900e000e6ff3a0092
:100dc0003f989700840037000000eb00909f9f0041
:100dd000809f9f00f0979f00e0979f00d0979f0013
:100de000c0979f0007003700218e200001005000af
:100df00000004000618d200061007800df989700be
:100e000001007000d09f9f008804780009047800da
:100e1000384578008a00fb00208e2000e901070099
:100e20000000e000f0ff3a00a1c2b300814f55007e
:100e30000e003a00cf8897000180e900c08f9f0024
:100e400010007800c09f9f000000e00005003d00fa
:100e50000000ea00c09f9f005f9897000020a0005c
:100e6000d09f9f000904e8000f003700c09f9f003b
:100e70000000eb0005003700f2ff2700820f500052
:100e8000020032006a01b9000280400009047800c3
:100e900088047800b900fb000103b100e98f50001d
:100ea000f5ff3600c09f9f00e0c2b300984f1000ce
:100eb000020032000080eb0019003700a0c2b3002e
:100ec000d84f100007003a00cf8897000180e90052
:100ed000c08f9f0010007800a09f9f000804e800ca
:100ee000100037000000eb00a09f9f0088007800f2
:100ef00005003700f3ff2700830f50000200320087
:100f00006a02b900040041000104780088007800fa
:100f10003101fb000203b100e90f5100f5ff36007b
:100f2000a09f9f00984478008900fb00e08c20007f
:100f3000a40107000000e000020032000804e800fd
:100f4000010037008044eb00c97f9f0080c6b300da
:100f500080cf540004003a0098cf14000a003a00f1
:100f60006640500006003700c0c6b30080cf540072
:100f700005003a0098cf140003003a006540400095
:100f8000c07f9f000804e8001801fb00e3fb2f006e
:100f90008f81410081f92f008f804000a0f92f0040
:100fa0000f004000100007000000e00009003a00b8
:100fb000e1fb2f008f804000a0f92f000f004000c0
:100fc000bb0207000000e000020035000804e80052
:100fd00061ff37000080eb004f0578004f04be0032
:100fe0000080fa0000000600889fbe008a9fbe00b5
:100ff000e4c6b300844f5100be00320010003c0034
:101000006b425200844f51001800320005003c0032
:1010100054c2b300844f5100f600320084c5b300bf
:101020000f00370044c6b300844f51001400320053
:1010300065424200844f5100f1003a001000370031
:1010400004c7b300844f5100dd0032005600350064
:1010500065424200844f5100530032006342420017
:10106000844f5100e6003a004f0037001181e9003b
:1010700082087800f000900012417800de0037000e
:1010800020629000c5c6b300854f520007003a00a9
:101090009102780064825200840878001402be0035
:1010a0004fabde00860378001400370015c7b3008d
:1010b000854f520003003a00110478006802540082
:1010c00005003700a5c6b300854f520006003a0060
:1010d0009104780068825400840878005403be00ac
:1010e0004402be00050037001182e9008408780040
:1010f00014027800cfa2de00612bb9000498be0074
:101100000690be00a060900088c6b30088cf500053
:101110000d00320028c6b30088cf500004003a000a
:101120000402fb00cfa2de00612bb90008003700eb
:1011300048c7b30088cf5000030032006644440023
:1011400088cf500004003a00cfa2de00612bb90026
:101150000498be000690be003002be002003be0010
:10116000f0009000e00f5200e08f5a00e00f5b00ab
:10117000e08f5b0002003d00d4c2b30008003700de
:10118000001290000418a30002003200b4c2b300a1
:10119000030037000408a3005100320004c2b3006a
:1011a00084f178004c00370020629000c5c6b3007f
:1011b000854f520008003a0011057800640255007e
:1011c000840878001404be006055b8000802be0010
:1011d0000a03be001400370015c7b300854f520044
:1011e00003003a009104780068825400050037003b
:1011f000a5c6b300854f520006003a0011057800dd
:1012000068025500840878005403be004402be0002
:10121000050037001182e900840878001402780084
:101220008002eb006033b8000498be000690be0058
:10123000a060900088c6b30088cf50000d00320037
:1012400028c6b30088cf500004003a000482fb0097
:101250008002eb006033b8000800370048c7b300d5
:1012600088cf5000030032006644440088cf50000d
:1012700004003a008002eb006033b8000498be001e
:101280000690be00801090000138a30014003200c8
:101290003002be002003be00e00f5200e08f5a0073
:1012a000e00f5b00e08f5b000d00320081c7b300f0
:1012b000814f51000300320081c5b300814f5100be
:1012c00007003a00f000900004c3b30084f17800f6
:1012d0008100e80082f178008100e8007100980048
:1012e000f000900081814100630098008240780006
:1012f0003e003700a0619000c4c6b3001181e90030
:1013000084cf5100220032000a003c0064425200a7
:1013100084cf51002500320004c2e80084cf510080
:10132000130032006842520084cf51001e003a0080
:101330000a00370044c7b30084cf51001b003200bd
:101340006642420084cf51001800320069425200c8
:1013500084cf510014003a0005003700820878005d
:101360009200780040589000804878002c003700a8
:101370008208780092007800600a9000cfa2de0018
:10138000612bb9008498be008690be00240037000f
:10139000820878009200780060099000cf91de000a
:1013a0008288be001e0037001181e90082087800a3
:1013b00092007800600890008008780018003700dc
:1013c0001181e9008208780012027800cfa2de00c5
:1013d000612bb9000498be000690be00f00090009a
:1013e000818141006300980081c7b300810007003c
:1013f0000b003700f000900082f178000600370003
:10140000f0009000818141000204e00001003a00f8
:1014100052c2b300824978008100e8007100980050
:101420000000eb004f05be004f04be0000000600a8
:10143000889fbe008a9fbe008c9fbe008e1f7800d2
:101440000006780001047800020078008304780028
:101450000881b900020778000200e0004200320073
:101460000800e0004100320082057800c9009000c9
:1014700069009000808f5000040039000900780056
:10148000cdfc07000000e0002900350000402000ee
:10149000190060000a0032000b017800a100200052
:1014a0000c00780036000700800678000d00e00090
:1014b00006003200610516000a8546000400370068
:1014c0000b0578008006eb00010037000b05780063
:1014d00049009000e9009000808050008a8f500001
:1014e00002003100010578008006eb000a01780057
:1014f0008c0078002c0007008a8555004900900078
:101500000a004000c00498000d00e0000400320012
:10151000090078006dfc07000000e00004003a00bc
:101520000b00e000020032000a064600cfff370041
:1015300000802000190060000200320009007800dd
:1015400062fc070000c020001900600002003200a9
:1015500049009000e00498008b0557001100090035
:101560008885d800010037000000eb004f077800a5
:101570004f06be004f05be004f04be00000006002f
:1015800003003700b0cf1000050032000201e9006f
:10159000800178000200e000faff3a000000050038
:1015a0000300780000000600800178000200370088
:1015b000b15978000201e9000200e000fcff3a00a6
:1015c00000000600020037000304e00006003200bd
:1015d0000001780002007800b041780081cf51000e
:1015e000f9ff3a00010037000001eb00020078002b
:1015f00000000600fc874700889fbe008a9fbe004f
:101600008c9fbe008e1f78000006780080c5b30056
:1016100080cf50000a0032007740400080cf500059
:101620000a0032006940400080cf50000b003200b9
:10163000d089200080bf9f00ae0020000a00370044
:10164000c288200082bf9f0006003700d389200097
:1016500083bf9f008e00200003003700d489200044
:1016600084bf9f000e0120003c02be002c03be0080
:101670000605be000404be0040c6b30080cf500083
:10168000030032006540400080cf50000b003a005c
:10169000e00f5200e08f5a00e00f5b00e08f5b002c
:1016a00006003d006000b8006011b800040450005e
:1016b000858458000605590087855900e80f5700b2
:1016c0000400320040002000f00f570038003a00bc
:1016d0000100370030002000e00f5400e08f5c0074
:1016e000e00f5d00e08f5d0004003a00dc08900030
:1016f0008d0120000100e000060032008e00e900ac
:10170000888060008fba9700e5c07800f1ef9f00f5
:101710007d012000800078008100e9000500330091
:101720008b05d1000a85d3008984d3000884d300b7
:10173000f9ff3700089ebe000a96be00120037006f
:101740008d06e9008e00e900848060000fb99700e3
:10175000e2c1780082fd2f000f01410003f17e00fd
:10176000800078008100e900050033008783d10004
:101770000683d3008582d3000482d300f9ff3700ab
:10178000049ebe000696be003c02be002c03be00b6
:10179000e00f5200e08f5a00e00f5b00e08f5b002b
:1017a0008b0034000d00e000e5ff3c0088003700ae
:1017b0002c60900081c6b300814f50000b003200b6
:1017c00006003c000004e00008003200e6c05000c3
:1017d000814f50004e003a0004003700c1c6b300ec
:1017e000814f50004a003a00210037000800e00015
:1017f00004003a005c0890008d0120000000e00029
:1018000006003200110009000e84d8000fb99700bd
:10181000e2c07800f1ef9f007d0120001100090077
:101820000e84d8000a003700110009000e04d80009
:101830008d06e9000e81b900020454008fb89700ac
:1018400061417c0081fd2f008f80400082f07e008e
:10185000000478000800e000020032000d00e00003
:10186000f1ff3c00cfc4de00614db9002500370018
:10187000e00f5400e08f5c0004003a005c08900028
:101880008d0120000000e000070032006171b90006
:101890000800be00670107008fb99700e341780098
:1018a000f3ef9f007d0120006171b9000800be00c8
:1018b000500107000b0037006171b9000800be003d
:1018c0003d0107008d06e90000f1b9000204540053
:1018d0000fba9700e4427c0084fd2f000f02420003
:1018e00005f27e000004be00e00f5000e08f5800bb
:1018f000020032000d00e000efff3c004fcdde00a3
:101900008a057800089ebe000a96be0030003700a7
:10191000e00f5400e08f5c00e00f5d00e08f5d00a1
:1019200004003a005c0890008d0120000000e000f7
:10193000090032006172b900612bb9000800be00d5
:101940000a01be00de0107000fba9700644278006a
:10195000f4ef9f007d0120006172b900612bb90096
:101960000800be000a01be00ce0107000d003700ce
:101970006172b900612bb9000800be000a01be0007
:10198000d30107008d06e90000f2b90004045400f9
:101990008fba970065427c0085fd2f008f82420040
:1019a00084f27e00009ebe000296be003c04be0093
:1019b0002c05be00e00f5400e08f5c00e00f5d00de
:1019c000e08f5d00020034000d00e000e8ff3c0005
:1019d000e80f570010003a000c1090000038a300e8
:1019e0000d003200f78f560006003e0085fd2f00e7
:1019f0008f824200e5c07e0000c3b30080cf50005c
:101a0000050032008d06e90002c3b30081fd2f00fe
:101a10008f80400082f07e0078811600120e9800c0
:101a20006c00900083fd2f008f8141008d8041006c
:101a3000ddfe07001c089000dc089000810f5000bc
:101a400006003d0000805000000e98000c10900031
:101a50000040a100001698000f0037000100e000d0
:101a60000d003d008c109000f4806000f08f50005d
:101a700009003a007c099000fc00900081005100b0
:101a80000c09900082805000008050004240a90064
:101a900001003400000e98004f0778004f06be008a
:101aa0004f05be004f04be00cf01b100000006008c
:101ab0000400fa00889fbe008a9fbe008c1f780039
:101ac0000004780001067800f80d9000780090007e
:101ad0008085550008089000808555001808900002
:101ae00080855500280890008085550038089000b2
:101af000808555004808900080855500000222002e
:101b000090bf9f0000032300a0bf9f00081090001b
:101b10000028a30015003a000b00e0001300340079
:101b20000b0578008a047800e20f550001003600aa
:101b300029002000c801900009017800ee805700bc
:101b40005800900003000100500498000000e000dd
:101b50008c0032006808900009004000600c98007a
:101b6000090555004240a900eeff3c0078019000b5
:101b70000200e0000c003400c80190008c007800e6
:101b80005800900003000100500498008080eb0092
:101b90000000e0007c003200e8089000780090002f
:101ba00000804000600c9800880c90000900e00064
:101bb0001100340009057800e28f5400010036005e
:101bc0002a002000c80190000a017800ec8057002c
:101bd0005800900003000100500498000000e0004d
:101be00068003200680890000a004000600c98000d
:101bf0008a845400edff3700180990000200e000cd
:101c00000c003400c8019000e800900058009000db
:101c100003000100500498008080eb000000e00009
:101c200059003200e8089000180890000080400039
:101c3000600c9800a80c90000900e000110034002e
:101c400009057800e28f5400010036002a002000c8
:101c5000c80190000a017800ec80570058009000fd
:101c600003000100500498000000e000450032002d
:101c7000680890000a004000600c98008a845400b4
:101c8000edff3700380990000200e0000e0034003c
:101c9000e80090001808900080804000c801900083
:101ca0005800900003000100500498008080eb0071
:101cb0000000e00034003200e8089000380890008e
:101cc00000804000600c9800c80c90000900e00003
:101cd0001100340009057800e28f5400010036003d
:101ce0002a002000c80190000a017800ec8057000b
:101cf0005800900003000100500498000000e0002c
:101d000020003200680890000a004000600c980033
:101d10008a845400edff3700081090008000eb002b
:101d20000028a300180032000b00e0001600340069
:101d30008b04780009057800e28f5400010036001a
:101d40002a002000c80190000a017800ee805700a8
:101d50005800900003000100500498000000e000cb
:101d600008003200680890000a004000600c9800eb
:101d70008a8454004240a900eeff3c008000eb0042
:101d8000010037008080eb00010078004f067800ea
:101d90004f05be004f04be000080fa0000000600a0
:101da000010878000000060000c0da00000006000c
:101db00000c0da0000000600839f68000100e00018
:101dc00002003d0060001000e08018000300e00009
:101dd00002003d0060011100e081190005000700cc
:101de0004f00e00002003b0060001000e08018009f
:101df000000006006022b800060220000000d000ab
:101e00008180d2000482d2008582d2000000a0002e
:101e10000202520083825a00030031000202420093
:101e200083824a000000a1000603e900f3ff3a00a4
:101e300000000600efff07000400be0000000600df
:101e4000889fbe008a9fbe0030044200b0844a00d2
:101e500030054b0090854b006000b1000898be0033
:101e60000a90be000440e10005c8e10006d0e10090
:101e700007d8e10002003100680040001008e800c7
:101e80004f05be004f04be0000000600889fbe0044
:101e90008a9fbe003004be002005be000418540016
:101ea00005985c0006185d0007985d001100200091
:101eb0000440e10005c8e10006d0e10007d8e100d8
:101ec000010039008000eb00108810004f05be00b3
:101ed0004f04be00000006001200fa00889fbe00fa
:101ee0008a9fbe008c9fbe00e0b79f00f1b79f00a5
:101ef00082bf9f0093bf9f000605be000404be0082
:101f00000000eb00d0b79f00c0b79f00b0b79f00a4
:101f1000a0b79f0090b79f000006eb005fb197004d
:101f2000cfb09700820141003fb097000200e0006f
:101f300004003d00370007007e805700c0ff070007
:101f400003003700330007007e805700cfff0700f3
:101f5000dfb697000d00e0000c0035006fb297006f
:101f6000ffb297000fbb97009fbb970010002000a7
:101f7000010020006011b80000027200818272002e
:101f800002037300838373001b0007000c06e80044
:101f900001042000810f5600e0ff3a000d00e00030
:101fa00004003d000802be000a03be007e80570008
:101fb000a3ff07005fa897000000e00005003a00bb
:101fc0001fb29700afb297003fb39700cfb397000f
:101fd000090007006fb09700ffb097000fb9970096
:101fe0009fb997004f06be004f05be004f04be00cc
:101ff0000080fa0000000600010007000000060053
:10200000a4b79f00b5b79f00c6b79f00d7b79f0082
:10201000000006004f09de0082817100b3b79f0007
:102020004f01de008180400082807000a1b79f00d8
:102030008fb097004f09de000000400002007000e2
:1020400090b79f007fa897004f01de00818040007d
:102050008280700081b79f000d0007004f3ade00bc
:102060000000400004007000f0af9f00080007006f
:102070000402420085824a0006034b0087834b001e
:10208000dfff07000802be000a03be0000000600d2
:102090002fb29700bfb297004fb39700dfb39700fe
:1020a00000000600881f780018002000881f7800b4
:1020b00089ff07008f87e9004f04780000000600c1
:1020c000801feb0084ff07008f87e90000000600f7
:1020d000889fbe008a9fbe00e00f5000e08f58002e
:1020e000e00f5900e08f59000c003d006044b8003b
:1020f0006055b8000000540081805c0002015d0062
:1021000083815d00180020001500070008003d00d5
:10211000180007000004eb00050037000004eb0086
:102120000f00070002003d00120007001800200009
:10213000dcff07000800e000060032006022b80063
:102140006033b8000000520081805a0002015b0039
:1021500083815b004f05be004f04be0000000600f7
:10216000e00f5200e08f5a00e00f5b00e08f5b0051
:10217000000006006044b8006055b8000402540036
:1021800085825c0006035d0087835d000000060019
:10219000889fbe008a9fbe008c1f7800e00f500011
:1021a000e08f5800e00f5900e08f59000d003d000e
:1021b0006044b8006055b8000000540081805c00a5
:1021c00002015d0083815d001c0020000820e10009
:1021d00009a8e1000ab0e1000bb8e1000d003d00e4
:1021e000080037000006eb00e00f5200e08f5a00b5
:1021f000e00f5b00e08f5b0006003d006044b8002c
:102200006055b8000402540085825c0006035d003e
:1022100087835d00aaff07000c00e0000600320083
:102220006022b8006033b8000000520081805a007c
:1022300002015b0083815b004f0678004f05be0002
:082240004f04be00000006007f
:020000040000fa
:102248000d0a00005265000061640000792000005a
:10225800746f00002072000065630000656900006b
:102268007665000020310000362d0000626900000c
:1022780074200000636f00006c6f0000722c000077
:10228800203100003238000078310000363000007c
:10229800202e0000626d0000702000006f760000a4
:1022a80065720000207800006d6f00006465000012
:1022b8006d200000200a00000d0000000d700000d5
:1022c8007265000073730000206100006e790000e1
:1022d8006b65000079200000616e0000642000003a
:1022e80074680000656e000020730000656e0000d1
:1022f800642e00002e2e0000202000000a0d000091
:1023080000410000434b0000002500007820000039
:0423180000000000c1
:020000040000fa
:10231c000000fa00f623ef00f823ef00fc23ef0097
:10232c0010002000202088000824ef000a24ef0071
:10233c000c24ef000e24ef0010322800a01f8800a0
:10234c000080fa00000006000400fa00000f78007c
:10235c001107980000000000e01f80006200600080
:10236c000000e000fcff3a001e00780010407800ee
:10237c000080fb000020880000000000e11f8000ae
:10238c0000022000008060000000e000fbff3a002b
:10239c0000208000804078001e00900001487800ea
:1023ac000080fa00000006001800fa00100f9800d8
:1023bc00210f9800320f98000000eb00000f7800fe
:1023cc000000eb00100798000000eb00700798006d
:1023dc000000eb00000f9800100020006007980030
:1023ec001e0890000000e00005003a000000eb0021
:1023fc005007980070004700200798000400370031
:10240c00ee009000510798009e089000210798005c
:10241c003e0890000000e00005003a000000eb00d0
:10242c00400798006e004700300798000500370001
:10243c00ee00900041079800be089000310798000c
:10244c0000000000e01f8000620060000000e0005f
:10245c00fcff3a001d003700e01f800062006000a6
:10246c000000e00009003a002e00900010407800b7
:10247c000080fb0000208800ae0090005e00900001
:10248c0000804000200798001e0fe800e11f80002c
:10249c0000022000008060000000e0000b003a0009
:1024ac0000208000804078003e00900001487800b9
:1024bc00be0090004e009000008040003007980055
:1024cc001e0090000000e800100798002e089000f5
:1024dc009e007800808f5000dfff3900100037001d
:1024ec00e11f800000022000008060000000e0007e
:1024fc000b003a0000208000804078003e009000e5
:10250c0001487800be0090004e0090000080400012
:10251c00300798001e0090000000e800100798009b
:10252c009e0090002e089000808f5000ecff390028
:10253c001e0078000080fa00000006000400fa007b
:10254c00204798000e80e8008e0078007eff070080
:10255c001e4078000080fa00000006000600fa0019
:10256c00000f780011079800220798002e019000a8
:10257c009e0090001e0078008bff07000080fa0080
:10258c00000006000000fa00a11f8000008020005f
:10259c00008060000000e0000200320020002000fb
:1025ac0008003700a11f8000004020000080600060
:1025bc000000e00002003200100020000100370093
:1025cc000000eb000080fa00000006000000fa009a
:1025dc00e01f80000080fa00000006000200fa00f4
:1025ec00a386a90050c0b300d4ff0700004f7800a9
:1025fc000040eb00d1ff0700004f7800a386a80035
:10260c00000000001e4078000080fa000000060068
:10261c000400fa00000f780021479800a386a90057
:10262c0060c0b300c5ff0700a386a800000000002f
:10263c00a386a90020c0b300c0ff07001e007800cd
:10264c004800de0000407800bcff07001e00780048
:10265c0000407800b9ff07002e409000b7ff07003c
:10266c00a386a8000080fa00000006000600fa000d
:10267c001007980041479800a386a90030c0b3000a
:10268c00aeff07001e0090004800de0000407800fe
:10269c00aaff07001e00900000407800a7ff07006b
:1026ac000040eb00a5ff0700004f7800a386a800b0
:1026bc001e4078000080fa00000006000000fa00be
:1026cc00740107009021ef006a0107000080fa00f6
:1026dc00000006008e00fa00150207000040eb0017
:1026ec0060479800a1cfb3000000eb00c8ff0700c3
:1026fc0000000000fe4090000000eb00dbff070034
:10270c00004f78000000000040122900801f780064
:10271c0078f907008f87e90020162900801f7800c0
:10272c0074f907008f87e9000000eb001007980090
:10273c000500370000402200410f2000e301070094
:10274c0030042000b6f70700d01c80006100600048
:10275c000000e000f7ff3200460107000000eb002c
:10276c002007980008003700720107006801470035
:10277c00ae00900081004100804878002e0090004f
:10278c000000e80020079800ae00900040082000f0
:10279c00808f5000f4ff360002c8bf000004e00038
:1027ac00130032000268ef000e489000f54f500005
:1027bc000f003a0050182900801f78004df90700cf
:1027cc008f87e9005b010700f74f500008003a00c3
:1027dc0050182900801f780046f907008f87e90000
:1027ec00000000000000eb002007980021003700db
:1027fc0030c0b300004f7800090037001e80fb008a
:10280c0000004700804890001e0090001e019000c0
:10281c000201e800120798007dff07001e4fe80038
:10282c0020c8b3009e40780080cf5000f3ff3600e4
:10283c00a2ff07006000200079f70700c7ff3700f0
:10284c00e80047002e009000008040001040780007
:10285c000080fb00801f780090182900801f7800f2
:10286c0024f90700e48757002e0090000000e800d0
:10287c0020079800ae00900030082000808f500098
:10288c00efff3600a0ff37000000fa006626ef00cd
:10289c007a26ef008e26ef004001210010358800cb
:1028ac00b626ef000002200050368800de26ef002e
:1028bc00f06f2c00103388000080eb00b0338800e0
:1028cc00e0012f0050348800f0ff2e00f034880017
:1028dc00f03f200090358800f01923003036880036
:1028ec00f0282f00d03688007426ef008826ef00e1
:1028fc009c26ef00b026ef00c426ef00d826ef0090
:10290c00ec26ef007226ef008626ef009a26ef00e9
:10291c00ae26ef00c226ef00d626ef00ea26ef0027
:10292c006826ef007c26ef009026ef00a426ef002f
:10293c00b826ef00cc26ef00e026ef00006c20005c
:10294c0050338800f0f32f00f0338800000126008c
:10295c0090348800000c20003035880000212000c5
:10296c00d035880000202000103788000108800036
:10297c00f00b200000816000600420007105200035
:10298c000310200080497800814978008249780042
:10299c00313f8000f00f2800808060000070200024
:1029ac0001007000303f8800213f8000f00f2800ac
:1029bc00808060000030200001007000203f880003
:1029cc00413f8000f00f28000080600000b0a000a4
:1029dc00403f8800a13d800000fc2f00008060007b
:1029ec00a000b300a03d8800c13d800000fc2f007a
:1029fc0000806000a001b300c03d8800000880008a
:102a0c00000178000260a000600420007105200025
:102a1c0003102000804978008149780082497800b1
:082a2c000080fa000000060022
:020000040000fa
:102a3400ae08000020000000800000000008000034
:102a44000200000082000000ffff000002080000f6
:102a54000200000080000000ec08000002000000fa
:102a640080000000040800008800000082000000cc
:102a740001000000002a08002b082a00082a080088
:102a84002a082a00081a08000000000000000000bc
:102a94000000000000000000000000000000000032
:102aa4000000000000020800010152000853080061
:102ab4005208520008520800520842000800000060
:102ac4000000000000000000000000000000000002
:102ad40000000000000000000000020008020200e4
:102ae4007a087b00087a08007a087a00087a0800d5
:102af4006a08000000000000000000000000000060
:102b040000000000000000000000000000000000c1
:102b140004082c0008540800000000000000000015
:102b24000000000000000000ee08000002000000a9
:102b340080000000f0080000020000008200000095
:102b440004000000e8080000040000008000000009
:102b5400ce0800001a00000082000000686a6c00c1
:102b6400747a4c0000000100000200000400080018
:102b740000100000000020002b2d23003000000076
:102b84008c08000022000000820000003031320076
:102b94003334350036373800394142004344450068
:102ba40046003000313233003435360037383900ce
:102bb400616263006465660000000000f2080000c2
:0c2bc40002000000800000000000000083
:020000040000fa
:102bd0000000fa009021ef0050c32000900c880004
:102be00000032000a00c88008860a9009860a8005d
:102bf000c08e20008040eb00014878000080fa0081
:102c0000000006000200fa00000f78009e00780025
:102c1000910c8800c08e20008040eb0001487800b5
:102c20000080fa00000006000000fa00900c80000e
:102c30000080fa00000006000200fa00000f780091
:102c40009e007800810c8800c08e20008040eb0040
:102c5000014878000080fa00000006000000fa0039
:102c6000800c80000080fa00000006000000fa00de
:102c700010002000104088000080fa0000000600cc
:102c80000000fa00c08e20008040eb000148780070
:102c90009860a80095e1a8000080fa0000000600f6
:102ca0000000fa0095e1a9009860a9000080fa00f0
:102cb000000006000200fa00c08e2000104f7800cd
:102cc0001e4078000004e00003003200c08e2000a7
:102cd0008040eb00014878001e4078000080fa0038
:102ce000000006000000fa00d08e2000104078009e
:102cf0000080fb000080fa00000006000000fa00df
:102d0000d08e20008040eb00014878000080fa005f
:102d1000000006000000fa0080002000c01c8800af
:102d20009a23ef0050112000001d8800a223ef001d
:102d300099e3a8009b43a8000080fa000000060069
:102d40000000fa000300370010408000e10f50003f
:102d500005003200d01c8000610060000000e0002f
:102d6000f9ff32000100370000000000d01c800095
:102d7000620060000000e000010032009a23a90018
:102d8000f01c8000004078000080fa00000006007f
:102d90000200fa00004f780000000000d11c800003
:102da00000202000008060000000e000fbff3a00ef
:102db0001e80fb00e01c88000080fa000000060076
:102dc0000000fa00d01c80000080fa00000006001d
:102dd0000000fa0000002300100888000621ef0020
:102de0006821ef006a21ef006c21ef000821ef005d
:102df00000702000500888000c21ef000e21ef0029
:102e00003200200080072000a109200013102000bc
:102e100080497800814978008249780012002000ba
:102e20006004200071052000031020008049780014
:102e30008149780082497800000000000008800085
:102e4000610060000000e000fcff3a000080fa0032
:102e5000000006000000fa000000230010088800af
:102e60000621ef006821ef006a21ef006c21ef00de
:102e70000821ef0000702000500888000c21ef00ae
:102e80000e21ef003200200080072000a109200061
:102e90001310200080497800814978008249780029
:102ea00012002000600420007105200003102000a3
:102eb000804978008149780082497800000000004c
:102ec00000088000610060000000e000fcff3a00a4
:082ed0000080fa00000006007a
:020000040000fa
:102ed800f03fb1000180b10006003500ee030900a3
:102ee80000000000403fb1000180b100fbff3d0041
:102ef8001000b000203fb00002003500008009003b
:082f08000000000000000600bb
:020000040000fa
:102f1000000f78009e00780001408800ffff370016
:102f20000000fa00e08a200080077800608c200012
:102f3000000188000080fa00000006000000fa008e
:102f400054fe0700a2ff070005000700f3fc07007e
:102f500070ff07001eff07000080fa000000060057
:102f60000000fa0041058000f0ff280000806000aa
:102f700000c0a000400588000080fa0000000600a4
:020000040000fa
:020000040015e5
:047e0000ffff000080
:020000040000fa
:020000040015e5
:047e2000ff1f000040
:020000040000fa
:020000040015e5
:047e300088ffff00c8
:020000040000fa
:020000040015e5
:047e380071ffff00d7
:020000040000fa
:020000040015e5
:047e40009fffff00a1
:020000040000fa
:020000040015e5
:047e4800ffffff0039
:020000040000fa
:020000040015e5
:047e5000deffff0052
:020000040000fa
:020000040015e5
:047e5800ffffff0029
:020000040000fa
:020000040100f9
:04300000ffffff00cf
:00000001FF
