:020000040000fa
:080000000001040000000000f3
:020000040000fa
:0400080010020000e2
:020000040000fa
:04000c0022020000cc
:020000040000fa
:0400100032020000b8
:020000040000fa
:0400140018020000ce
:020000040000fa
:040018002a020000b8
:020000040000fa
:04001c006802000076
:020000040000fa
:040020006802000072
:020000040000fa
:04002400680200006e
:020000040000fa
:04002800680200006a
:020000040000fa
:04002c006802000066
:020000040000fa
:040030006802000062
:020000040000fa
:040034003a0200008c
:020000040000fa
:04003800680200005a
:020000040000fa
:04003c006802000056
:020000040000fa
:040040006802000052
:020000040000fa
:04004400680200004e
:020000040000fa
:04004800680200004a
:020000040000fa
:04004c006802000046
:020000040000fa
:040050006802000042
:020000040000fa
:04005400680200003e
:020000040000fa
:04005800680200003a
:020000040000fa
:04005c006802000036
:020000040000fa
:040060006802000032
:020000040000fa
:04006400680200002e
:020000040000fa
:04006800680200002a
:020000040000fa
:04006c006802000026
:020000040000fa
:040070006802000022
:020000040000fa
:04007400680200001e
:020000040000fa
:04007800680200001a
:020000040000fa
:04007c006802000016
:020000040000fa
:040080006802000012
:020000040000fa
:04008400680200000e
:020000040000fa
:04008800680200000a
:020000040000fa
:04008c006802000006
:020000040000fa
:040090006802000002
:020000040000fa
:0400940068020000fe
:020000040000fa
:0400980068020000fa
:020000040000fa
:04009c0068020000f6
:020000040000fa
:0400a00068020000f2
:020000040000fa
:0400a40068020000ee
:020000040000fa
:0400a80068020000ea
:020000040000fa
:0400ac0068020000e6
:020000040000fa
:0400b00068020000e2
:020000040000fa
:0400b40068020000de
:020000040000fa
:0400b80068020000da
:020000040000fa
:0400bc0068020000d6
:020000040000fa
:0400c00068020000d2
:020000040000fa
:0400c40068020000ce
:020000040000fa
:0400c80068020000ca
:020000040000fa
:0400cc0068020000c6
:020000040000fa
:0400d00068020000c2
:020000040000fa
:0400d40068020000be
:020000040000fa
:0400d80068020000ba
:020000040000fa
:0400dc0068020000b6
:020000040000fa
:0400e00068020000b2
:020000040000fa
:0400e40068020000ae
:020000040000fa
:0400e80068020000aa
:020000040000fa
:0400ec0068020000a6
:020000040000fa
:0400f00068020000a2
:020000040000fa
:0400f400680200009e
:020000040000fa
:0400f800680200009a
:020000040000fa
:0400fc006802000096
:020000040000fa
:040100006802000091
:020000040000fa
:04010400680200008d
:020000040000fa
:040108006802000089
:020000040000fa
:04010c006802000085
:020000040000fa
:040110006802000081
:020000040000fa
:04011400680200007d
:020000040000fa
:040118006802000079
:020000040000fa
:04011c006802000075
:020000040000fa
:040120006802000071
:020000040000fa
:04012400680200006d
:020000040000fa
:040128006802000069
:020000040000fa
:04012c006802000065
:020000040000fa
:040130006802000061
:020000040000fa
:04013400680200005d
:020000040000fa
:040138006802000059
:020000040000fa
:04013c006802000055
:020000040000fa
:040140006802000051
:020000040000fa
:04014400680200004d
:020000040000fa
:040148006802000049
:020000040000fa
:04014c006802000045
:020000040000fa
:040150006802000041
:020000040000fa
:04015400680200003d
:020000040000fa
:040158006802000039
:020000040000fa
:04015c006802000035
:020000040000fa
:040160006802000031
:020000040000fa
:04016400680200002d
:020000040000fa
:040168006802000029
:020000040000fa
:04016c006802000025
:020000040000fa
:040170006802000021
:020000040000fa
:04017400680200001d
:020000040000fa
:040178006802000019
:020000040000fa
:04017c006802000015
:020000040000fa
:040180006802000011
:020000040000fa
:04018400680200000d
:020000040000fa
:040188006802000009
:020000040000fa
:04018c006802000005
:020000040000fa
:040190006802000001
:020000040000fa
:0401940068020000fd
:020000040000fa
:0401980068020000f9
:020000040000fa
:04019c0068020000f5
:020000040000fa
:0401a00068020000f1
:020000040000fa
:0401a40068020000ed
:020000040000fa
:0401a80068020000e9
:020000040000fa
:0401ac0068020000e5
:020000040000fa
:0401b00068020000e1
:020000040000fa
:0401b40068020000dd
:020000040000fa
:0401b80068020000d9
:020000040000fa
:0401bc0068020000d5
:020000040000fa
:0401c00068020000d1
:020000040000fa
:0401c40068020000cd
:020000040000fa
:0401c80068020000c9
:020000040000fa
:0401cc0068020000c5
:020000040000fa
:0401d00068020000c1
:020000040000fa
:0401d40068020000bd
:020000040000fa
:0401d80068020000b9
:020000040000fa
:0401dc0068020000b5
:020000040000fa
:0401e00068020000b1
:020000040000fa
:0401e40068020000ad
:020000040000fa
:0401e80068020000a9
:020000040000fa
:0401ec0068020000a5
:020000040000fa
:0401f00068020000a1
:020000040000fa
:0401f400680200009d
:020000040000fa
:0401f8006802000099
:020000040000fa
:0401fc006802000095
:020000040000fa
:100200002f8d20000eff27000e0188000000000047
:10021000000020000000e000020032000001200089
:100220002002880014000700ff0007000000e00023
:1002300003003a0040e820000100200002003700df
:100240000000200001002000810f7000010032003a
:1002500014000700000020000000e000020032004f
:100260000000020000000000000d0200000000007d
:100270000040da000000fe004440a90060062000b3
:100280000000e00003003200002020009001880000
:100290004440a800000006008a1f78008b1f7800e9
:1002a00000000600a1028800800478000000eb0036
:1002b0001f003700e284440054a0b4009905ba003e
:1002c000e284440054a0b4009906ba00e2844400d9
:1002d00054a0b4000006eb00476fde00fd07b2003b
:1002e000ae018800636ce10003003a00eaff0700fa
:1002f0000000eb000e003700606ce10008003a00df
:10030000004deb000a05e800020039003420ec0043
:100310000af0a0008b05e900f9ff3e000400370059
:100320006168e100010032000086eb000b0007006d
:1003300019c7ba001905ba000e04e00003003a001c
:100340000a00e000dbff3a0000000600fe07b200f2
:10035000ae0288008a047800f5ff37000cd0a300b5
:10036000e20f4d001c00390089027800354dba00bb
:100370000a05e800020039003420ec000af0a00071
:100380008b05e9000f003200254dba000a05e80090
:10039000020039003420ec000af0a0008b05e900cf
:1003a000080032000c00e0000600320015cdba0053
:1003b0000a05e800020039003420ec000af0a00031
:1003c0008b05e9008984e80054a0b4000b00e0002c
:1003d000e2ff3a00000006009902ba00055d7800cd
:1003e0008b05e900f7ff3200c82ade00055d7800c2
:1003f0008b05e900f3ff32000c00e000f1ff320052
:1004000019ddba00eeff370004050400000000000b
:10041000000004000000000064060400000000006a
:100420003600f8008020a9000000eb005e070700fe
:100430003600f800600707008040a9001000200087
:10044000590707003600f8008060a900200020004e
:10045000550707003600f8008080a9003000200012
:10046000510707003600f8008600a9007000200040
:100470004d0707003600f800809fbe00829fbe0037
:10048000849fbe00869fbe000000fa009d06070004
:10049000b08c2000104078008040e800b08c200034
:1004a00001487800a08c200011c0b30001487800fa
:1004b0008860a9000080fa004f03be004f02be0012
:1004c0004f01be004f00be003600f900004006009c
:1004d0000040da000000fe000a00fa0011002000cf
:1004e000b1bf9f00c0bf9f006a8057002204070071
:1004f0004fb897000080fa00000006000a00fa00da
:1005000051002000b1bf9f00c0bf9f006a8057000c
:100510001b0407005fb897000080fa000000060087
:10052000889fbe0080047800804680000000e000c4
:1005300004003a000e0007000084eb000000e00019
:1005400008003500884680000900e0000500320000
:1005500009004400060007000000e00001003d0023
:100560000084eb00080078004f04be000000060085
:10057000800078000100e00003003a000000200045
:1005800080468800000005000080eb00020020008b
:10059000828f500002003e00814688000000eb0080
:1005a000000006000800fa001007980021079800d4
:1005b0003207980000000000d11c800000102000cd
:1005c000008060000000e000fbff3200be009000f1
:1005d000010f78000e00370000000000d11c8000e1
:1005e00000102000008060000000e000fbff3200ef
:1005f0002e009000104078000000fb00e01c8800f6
:100600002e0090000000e800200798001e0fe9006f
:100610001e0078000000e000efff3a003e0090006e
:100620000080fa000000060000000500c1822000e2
:1006300000003700889fbe008a1f78000004be00bb
:10064000c900900069009000808f500005003900bb
:1006500009007800580007008080eb000000e000ef
:1006600016003500084578004900900008587800c9
:10067000c00498001900780000b8a30004003a00f4
:1006800000a8a30007003200ea4f540005003a001a
:10069000090078000d0007008080eb000000e000fa
:1006a00006003a0000c0200019006000020032007d
:1006b00049009000e00498008a80fb000100780067
:1006c0004f0578004f04be0000000600889fbe0062
:1006d0008a1f7800000478000800e0000d003a004e
:1006e000a8872000700544008004eb0058007800c3
:1006f0000000e00004003200f4ff07000000e0000a
:1007000001003d008084eb008a0f5400f7ff3a009f
:100710002500370000002200180060008004eb0074
:1007200021003200a80490000f0037000901510099
:10073000384090000000fb008900780099ff070016
:100740000000e00007003c002800900040049800f2
:1007500060049800500c98001890a0008084eb0072
:10076000110037008084440048019000828f5400bb
:10077000eeff3900280090004004980098007800af
:1007800002c020000281600001003a0038009000a1
:1007900001e8a30002003200600498000100370065
:1007a000500c98008004eb00090078004f05780099
:1007b0004f04be0000000600889fbe008a1f78001c
:1007c00000047800c8009000680190000000eb0071
:1007d000828f50003c003900180078002200290068
:1007e00002016000e20f51000700320001202400e6
:1007f0000000e00001003d0001202000008c70009e
:100800000080eb003000370002002600020060008c
:10081000820f500009003a0038009000808f50008d
:100820000600390008007800a8ff07008000780063
:100830000080eb000100e00023003a00180578007a
:1008400000c020000000650018003a00a8049000d5
:100850006002200008004000808f540013003a001e
:1008600000202000d8000700200498000000e000cd
:1008700005003a0029049800490498008904e8001a
:1008800039049800080037000a60a0000a0c7800bc
:10089000400498000120200080804000310498002e
:1008a000400c9800500c98000c00070028009000a5
:1008b0005004980038009000600498000000260062
:1008c000180c70000000eb004f0578004f04be00cc
:1008d0000000060040502000e5003700881f780027
:1008e000c88c20001804e00003003a00f9ff07005c
:1008f00020c0b300004c78004f04780000000600d0
:10090000889fbe0000047800080078006fff070091
:10091000800478000004200018006000020032000b
:1009200028009000430007000000eb00200498001e
:10093000384090000004e000050035000000fb0096
:10094000e5fe07000000e000010032008084eb00bb
:10095000181090000000e00008003200e7fe0700d9
:100960000000e000010032008084eb0018109000cd
:10097000300007000000eb00101498000008200071
:10098000180060000f003200a18720000000eb007b
:10099000d10f140005003a0000004000c18720007c
:1009a000008040000008eb00030037000000e80072
:1009b000e80f5000f6ff3a00080078001d0007001d
:1009c0000e003700000c780000c0eb0030449800a7
:1009d00060022000080040002004980040049800b5
:1009e00050049800400c980060049800500c980047
:1009f0007004980076004400000c9800090078000c
:100a00004f04be0000000600889fbe00c88820007a
:100a1000f0045400480078000000e00001003200bb
:100a2000b7ff0700890f5400faff3a004f04be00d9
:100a3000000006000000e0002f003200c001780036
:100a4000e38f51002c0036000308a3002a003a006f
:100a5000414680000100e00002003200810f50009a
:100a6000040031001100980040468800160037004d
:100a700082007800110190000200e00002003200c4
:100a8000800f5100faff3900110278008482400083
:100a9000850f500018003900808f520003003a0083
:100aa0008308420001007800070037000200e000e0
:100ab0000300320083014000830f51000e00390013
:100ac0001200980090009800900090000100e00053
:100ad0000900320010014000828f500006003a00e9
:100ae000628c20000009eb00100178001108410021
:100af000910090001100980000000600889fbe0041
:100b000000047800314680000100e000020032005d
:100b1000010078000d00370041468000808c2000e5
:100b200004003700910f5400250036000180e800d2
:100b3000910090000100e000faff3a001000370039
:100b4000920f54001e0036000280e8001001780069
:100b50000200e000faff3a001101780041468000ef
:100b6000808c200004003700910f540014003600e0
:100b70000180e80091009000828f5000faff3a0057
:100b800079468000888f5400010031008804780085
:100b900009007800420007000000e00004003a006d
:100ba000888f5400050032008904d100f5ff37001a
:100bb000091878009fff0700d2ff37000000eb0004
:100bc0004f04be0000000600881f78006304400048
:100bd0000800a1008000eb00800f540021003600c7
:100be000e30f540001003e00480020000800780098
:100bf000c2ff07008000eb000000e0001900320097
:100c0000900078009101780064815100880f5100b4
:100c1000030031001101900002087800070037003e
:100c200008814000020878009101900013019800ab
:100c3000100178001109140088087800100178006c
:100c40000000eb000200e00004003200920190007e
:100c50000300e000010032000280e8003046880016
:100c60008180e800010078004f0478000000060051
:100c7000010020000100e0000800320001008000b7
:100c80000100e000050032008100e9000100880059
:100c9000818040000200800000b178000000060062
:100ca000800078000000eb000100e0000500340047
:100cb000010078001afe0700e10f400001003a0031
:100cc0000000eb0000000600889fbe0000047800d2
:100cd000010078008204780088017800090178001a
:100ce00011002000ef000700890f500001003200c2
:100cf0000004eb00080078004f04be00000006006e
:100d00000000fa00e88157004fb99700c182200027
:100d100040662000020007000080fa000000060084
:100d20006200fa00889fbe008a1f780000057800e4
:100d300081047800020478008300780080f92f0095
:100d40000f0040000a0207009a979f00a9979f0092
:100d50000000eb00b09f9f001885fb008a04fb0099
:100d60000a05ea004f55de0050022000808f540033
:100d70000d003200e10f55000b003a000a01780027
:100d8000880078002f9097009f9197000300010042
:100d9000a0979f000000e0008e0032003f9897006f
:100da0000000e800b09f9f000a04440050022000a9
:100db000808f5400040032000900e000e6ff3a0092
:100dc0003f989700840037000000eb00909f9f0041
:100dd000809f9f00f0979f00e0979f00d0979f0013
:100de000c0979f0007003700018c200001005000d1
:100df00000004000418b200061007800df989700e0
:100e000001007000d09f9f008804780009047800da
:100e1000384578008a00fb00008c2000060107009e
:100e20000000e000f0ff3a00a1c2b300814f55007e
:100e30000e003a00cf8897000180e900c08f9f0024
:100e400010007800c09f9f000000e00005003d00fa
:100e50000000ea00c09f9f005f9897000020a0005c
:100e6000d09f9f000904e8000f003700c09f9f003b
:100e70000000eb0005003700f2ff2700820f500052
:100e8000020032006a01b9000280400009047800c3
:100e900088047800b900fb000103b100e98f50001d
:100ea000f5ff3600c09f9f00e0c2b300984f1000ce
:100eb000020032000080eb0019003700a0c2b3002e
:100ec000d84f100007003a00cf8897000180e90052
:100ed000c08f9f0010007800a09f9f000804e800ca
:100ee000100037000000eb00a09f9f0088007800f2
:100ef00005003700f3ff2700830f50000200320087
:100f00006a02b900040041000104780088007800fa
:100f10003101fb000203b100e90f5100f5ff36007b
:100f2000a09f9f00984478008900fb00c08a2000a1
:100f3000c10007000000e000020032000804e800e1
:100f4000010037008044eb00c97f9f0080c6b300da
:100f500080cf540004003a0098cf14000a003a00f1
:100f60006640500006003700c0c6b30080cf540072
:100f700005003a0098cf140003003a006540400095
:100f8000c07f9f000804e8001801fb00e3fb2f006e
:100f90008f81410081f92f008f804000a0f92f0040
:100fa0000f004000100007000000e00009003a00b8
:100fb000e1fb2f008f804000a0f92f000f004000c0
:100fc000af0007000000e000020035000804e80060
:100fd00061ff37000080eb004f0578004f04be0032
:100fe0000080fa0000000600889fbe008a1f78007b
:100ff0000004780030c5b300804f51000800320073
:1010000030c7b300804f51000500320051c2b30019
:1010100078009000814f510017003a00140037000b
:101020001180e90080087800100578006a049800b3
:10103000d80c90000900e00004003d000a00780090
:101040008900070080047800070037000901780054
:101050008000eb000a007800660007000000e00056
:10106000010032008a045000190c98000900370072
:101070008271780005003700808141000204e000a1
:1010800001003a0001417800824978000000e80040
:10109000700498000000eb004f0578004f04be007c
:1010a00000000600889fbe008a9fbe008c9fbe0085
:1010b0008e1f780000067800010478000200780096
:1010c000830478000881b900020778000200e0007c
:1010d000420032000800e000410032008205780042
:1010e000c900900069009000808f50000400390012
:1010f00009007800b0fd07000000e000290035007d
:1011000000402000190060000a0032000b01780046
:10111000a10020000c00780036000700800678004f
:101120000d00e00006003200610516000a85460049
:10113000040037000b0578008006eb000100370043
:101140000b05780049009000e90090008080500075
:101150008a8f500002003100010578008006eb0004
:101160000a0178008c0078002c0007008a85550061
:10117000490090000a004000c00498000d00e00003
:10118000040032000900780050fd07000000e00074
:1011900004003a000b00e000020032000a0646009c
:1011a000cfff3700008020001900600002003200ed
:1011b0000900780045fd070000c02000190060000c
:1011c0000200320049009000e00498008b055700af
:1011d000110009008885d800010037000000eb00ed
:1011e0004f0778004f06be004f05be004f04be00fb
:1011f0000000060003003700b0cf100005003200e9
:101200000201e900800178000200e000faff3a00e4
:10121000000005000300780000000600800178004f
:1012200002003700b15978000201e9000200e00035
:10123000fcff3a0000000600020037000304e00053
:10124000060032000001780002007800b04178000a
:1012500081cf5100f9ff3a00010037000001eb0097
:10126000020078000000060080007800010178008c
:101270003104e000fdff3a000000510000000600cc
:101280000400fa00889fbe008a9fbe008c1f780071
:101290000004780001067800f80d900078009000b6
:1012a000808555000808900080855500180890003a
:1012b00080855500280890008085550038089000ea
:1012c0008085550048089000808555000002220066
:1012d00090bf9f0000032300a0bf9f000810900054
:1012e0000028a30015003a000b00e00013003400b2
:1012f0000b0578008a047800e20f550001003600e3
:1013000029002000c801900009017800ee805700f4
:101310005800900003000100500498000000e00015
:101320008c0032006808900009004000600c9800b2
:10133000090555004240a900eeff3c0078019000ed
:101340000200e0000c003400c80190008c0078001e
:101350005800900003000100500498008080eb00ca
:101360000000e0007c003200e80890007800900067
:1013700000804000600c9800880c90000900e0009c
:101380001100340009057800e28f54000100360096
:101390002a002000c80190000a017800ec80570064
:1013a0005800900003000100500498000000e00085
:1013b00068003200680890000a004000600c980045
:1013c0008a845400edff3700180990000200e00005
:1013d0000c003400c8019000e80090005800900014
:1013e00003000100500498008080eb000000e00042
:1013f00059003200e8089000180890000080400072
:10140000600c9800a80c90000900e0001100340066
:1014100009057800e28f5400010036002a00200000
:10142000c80190000a017800ec8057005800900035
:1014300003000100500498000000e0004500320065
:10144000680890000a004000600c98008a845400ec
:10145000edff3700380990000200e0000e00340074
:10146000e80090001808900080804000c8019000bb
:101470005800900003000100500498008080eb00a9
:101480000000e00034003200e808900038089000c6
:1014900000804000600c9800c80c90000900e0003b
:1014a0001100340009057800e28f54000100360075
:1014b0002a002000c80190000a017800ec80570043
:1014c0005800900003000100500498000000e00064
:1014d00020003200680890000a004000600c98006c
:1014e0008a845400edff3700081090008000eb0064
:1014f0000028a300180032000b00e00016003400a2
:101500008b04780009057800e28f54000100360052
:101510002a002000c80190000a017800ee805700e0
:101520005800900003000100500498000000e00003
:1015300008003200680890000a004000600c980023
:101540008a8454004240a900eeff3c008000eb007a
:10155000010037008080eb00010078004f06780022
:101560004f05be004f04be000080fa0000000600d8
:10157000010878000000060000c0da000000060044
:0815800000c0da0000000600c3
:020000040000fa
:101588000d0a000052650000616400007920000027
:10159800746f000020720000656300006569000038
:1015a8007665000020310000362d000062690000d9
:1015b80074200000636f00006c6f0000722c000044
:1015c8002031000032380000783100003630000049
:1015d800202e0000626d0000702000006f76000071
:1015e80065720000207800006d6f000064650000df
:1015f8006d200000200a00000d0000000d700000a2
:101608007265000073730000206100006e790000ad
:101618006b65000079200000616e00006420000006
:1016280074680000656e000020730000656e00009d
:10163800642e00002e2e0000202000000a0d00005d
:0c16480000410000434b000000000000c7
:020000040000fa
:101654000000fa00f623ef00f823ef00fc23ef006c
:1016640010002000202088000824ef000a24ef0046
:101674000c24ef000e24ef0010322800a01f880075
:101684000080fa00000006000400fa00000f780051
:101694001107980000000000e01f80006200600055
:1016a4000000e000fcff3a001e00780010407800c3
:1016b4000080fb000020880000000000e11f800083
:1016c40000022000008060000000e000fbff3a0000
:1016d40000208000804078001e00900001487800bf
:1016e4000080fa00000006001800fa00100f9800ad
:1016f400210f9800320f98000000eb00000f7800d3
:101704000000eb00100798000000eb007007980041
:101714000000eb00000f9800100020006007980004
:101724001e0890000000e00005003a000000eb00f5
:101734005007980070004700200798000400370005
:10174400ee009000510798009e0890002107980031
:101754003e0890000000e00005003a000000eb00a5
:10176400400798006e0047003007980005003700d6
:10177400ee00900041079800be08900031079800e1
:1017840000000000e01f8000620060000000e00034
:10179400fcff3a001d003700e01f8000620060007b
:1017a4000000e00009003a002e009000104078008c
:1017b4000080fb0000208800ae0090005e009000d6
:1017c40000804000200798001e0fe800e11f800001
:1017d40000022000008060000000e0000b003a00de
:1017e40000208000804078003e009000014878008e
:1017f400be0090004e00900000804000300798002a
:101804001e0090000000e800100798002e089000c9
:101814009e007800808f5000dfff390010003700f1
:10182400e11f800000022000008060000000e00052
:101834000b003a0000208000804078003e009000b9
:1018440001487800be0090004e00900000804000e7
:10185400300798001e0090000000e8001007980070
:101864009e0090002e089000808f5000ecff3900fd
:101874001e0078000080fa00000006000400fa0050
:10188400204798000e80e8008e0078007eff070055
:101894001e4078000080fa00000006000600fa00ee
:1018a400000f780011079800220798002e0190007d
:1018b4009e0090001e0078008bff07000080fa0055
:1018c400000006000000fa00a11f80000080200034
:1018d400008060000000e0000200320020002000d0
:1018e40008003700a11f8000004020000080600035
:1018f4000000e00002003200100020000100370068
:101904000000eb000080fa00000006000000fa006e
:10191400e01f80000080fa00000006000200fa00c8
:10192400a386a90050c0b300d4ff0700004f78007d
:101934000040eb00d1ff0700004f7800a386a80009
:10194400000000001e4078000080fa00000006003d
:101954000400fa00000f780021479800a386a9002c
:1019640060c0b300c5ff0700a386a8000000000004
:10197400a386a90020c0b300c0ff07001e007800a2
:101984004800de0000407800bcff07001e0078001d
:1019940000407800b9ff07002e409000b7ff070011
:1019a400a386a8000080fa00000006000600fa00e2
:1019b4001007980041479800a386a90030c0b300df
:1019c400aeff07001e0090004800de0000407800d3
:1019d400aaff07001e00900000407800a7ff070040
:1019e4000040eb00a5ff0700004f7800a386a80085
:1019f4001e4078000080fa00000006008e00fa0005
:101a0400f30107000040eb0060479800a1cfb3004a
:101a14000000eb00ceff070000000000fe40900035
:101a24000000eb00e1ff0700004f78000000000019
:101a340040ac2800801f7800b0fc07008f87e900c5
:101a440020b02800801f7800acfc07008f87e900d5
:101a54000000eb001007980005003700004022004a
:101a6400410f2000c101070030042000eefa0700f6
:101a7400d01c8000610060000000e000f7ff32002d
:101a8400240107000000eb0020079800080037003d
:101a94005001070068014700ae009000810041003a
:101aa400804878002e0090000000e800200798008d
:101ab400ae00900040082000808f5000f4ff3600f4
:101ac40002c8bf000004e000100032000268ef000a
:101ad4000e489000e44f50000a003a0050b228002b
:101ae400801f780085fc07008f87e9000000000054
:101af400100107000000eb00100798000080fa00b6
:101b04000000060050012000c7fa07000901070081
:101b140030c0b300004f7800090037001e80fb007e
:101b240000004700804890001e0090001e019000b5
:101b34000201e8001207980085ff07001e4fe80025
:101b440020c8b3009e40780080cf5000f3ff3600d9
:101b54009021ef00ef00070060002000b2fa0700b8
:101b6400c8ff37000000fa006626ef007a26ef006f
:101b74008e26ef004001210010358800b626ef00c4
:101b84000002200050368800de26ef00f06f2c00a3
:101b9400103388000080eb00b0338800e0012f0090
:101ba40050348800f0ff2e00f0348800f03f20000d
:101bb40090358800f019230030368800f0282f0073
:101bc400d03688007426ef008826ef009c26ef00ac
:101bd400b026ef00c426ef00d826ef00ec26ef0075
:101be4007226ef008626ef009a26ef00ae26ef005d
:101bf400c226ef00d626ef00ea26ef006826ef00a3
:101c04007c26ef009026ef00a426ef00b826ef0014
:101c1400cc26ef00e026ef00006c20005033880053
:101c2400f0f32f00f0338800000126009034880080
:101c3400000c20003035880000212000d0358800b9
:101c4400002020001037880001088000f00b2000dd
:101c54000081600060042000710520000310200052
:101c6400804978008149780082497800313f8000ba
:101c7400f00f2800808060000070200001007000d8
:101c8400303f8800213f8000f00f280080806000f2
:101c94000030200001007000203f8800413f800098
:101ca400f00f28000080600000b0a000403f8800d2
:101cb400a13d800000fc2f0000806000a000b30064
:101cc400a03d8800c13d800000fc2f000080600022
:101cd400a001b300c03d8800000880000001780026
:101ce4000260a000600420007105200003102000a1
:101cf4008049780081497800824978000080fa00a0
:041d040000000600d5
:020000040000fa
:101d08008c0800002000000080000000000800008f
:101d18000200000082000000ffff0000ca08000067
:101d2800020000008000000002080000020000001d
:101d38008000000004080000880000008200000005
:101d480001000000002a08002b082a00082a0800c1
:101d58002a082a00081a08000000000000000000f5
:101d6800000000000000000000000000000000006b
:101d7800000000000002080001015200085308009a
:101d88005208520008520800520842000800000099
:101d9800000000000000000000000000000000003b
:101da800000000000000000000000200080202001d
:101db8007a087b00087a08007a087a00087a08000e
:101dc8006a08000000000000000000000000000099
:101dd80000000000000000000000000000000000fb
:101de80004082c000854080000000000000000004f
:101df8000000000000000000cc0800000200000005
:101e080080000000ce0800000200000082000000f0
:101e180004000000c6080000040000008000000064
:101e2800ac0800001a00000082000000686a6c001c
:101e3800747a4c0000000100000200000400080051
:101e480000100000000020002b2d230030000000af
:101e5800d008000002000000800000000000000020
:020000040000fa
:101e68000000fa009021ef0010032000900c880079
:101e780020222000a00c88008860a9009860a80093
:101e8800a08c20008040eb00014878000080fa0018
:101e9800000006000200fa00000f78009e0078009b
:101ea800910c8800a08c20008040eb00014878004d
:101eb8000080fa00000006000000fa00900c800084
:101ec8000080fa00000006000200fa00000f780007
:101ed8009e007800810c8800a08c20008040eb00d8
:101ee800014878000080fa00000006000000fa00af
:101ef800800c80000080fa00000006000000fa0054
:101f080010002000104088000080fa000000060041
:101f18000000fa00a08c20008040eb000148780007
:101f28009860a80095e1a8000080fa00000006006b
:101f38000000fa0095e1a9009860a9000080fa0065
:101f4800000006000200fa00a08c2000104f780064
:101f58001e4078000004e00003003200a08c20003e
:101f68008040eb00014878001e4078000080fa00ad
:101f7800000006000000fa00b08c20001040780035
:101f88000080fb000080fa00000006000000fa0054
:101f9800b08c20008040eb00014878000080fa00f7
:101fa800000006000000fa0080002000c01c880025
:101fb8009a23ef0050112000001d8800a223ef0093
:101fc80099e3a8009b43a8000080fa0000000600df
:101fd8000000fa000300370010408000e10f5000b5
:101fe80005003200d01c8000610060000000e000a5
:101ff800f9ff32000100370000000000d01c80000b
:10200800620060000000e000010032009a23a9008d
:10201800f01c8000004078000080fa0000000600f4
:102028000200fa00004f780000000000d11c800078
:1020380000202000008060000000e000fbff3a0064
:102048001e80fb00e01c88000080fa0000000600eb
:102058000000fa00d01c80000080fa000000060092
:102068000000fa0000002300100888000621ef0095
:102078006821ef006a21ef006c21ef000821ef00d2
:1020880000702000500888000c21ef000e21ef009e
:102098003200200080072000a10920001310200032
:1020a8008049780081497800824978001200200030
:1020b800600420007105200003102000804978008a
:1020c80081497800824978000000000000088000fb
:1020d800610060000000e000fcff3a000080fa00a8
:1020e800000006000000fa00000023001008880025
:1020f8000621ef006821ef006a21ef006c21ef0054
:102108000821ef0000702000500888000c21ef0023
:102118000e21ef003200200080072000a1092000d6
:10212800131020008049780081497800824978009e
:102138001200200060042000710520000310200018
:1021480080497800814978008249780000000000c1
:1021580000088000610060000000e000fcff3a0019
:082168000080fa0000000600ef
:020000040000fa
:10217000f03fb1000180b10006003500ee03090018
:1021800000000000403fb1000180b100fbff3d00b6
:102190001000b000203fb0000200350000800900b0
:0821a000000000000000060031
:020000040000fa
:1021a800000f78009e00780001408800ffff37008c
:1021b8000000fa00c088200080077800408a2000cc
:1021c800000188000080fa00000006000000fa0004
:1021d80063fe070006000700a1ff07001bfd0700bc
:1021e80070ff07001eff07000080fa0000000600cd
:1021f8000000fa0041058000f0ff28000080600020
:1022080000c0a000400588000080fa000000060019
:020000040000fa
:020000040015e5
:047e0000ffff000080
:020000040000fa
:020000040015e5
:047e2000ff1f000040
:020000040000fa
:020000040015e5
:047e300088ffff00c8
:020000040000fa
:020000040015e5
:047e380071ffff00d7
:020000040000fa
:020000040015e5
:047e40009fffff00a1
:020000040000fa
:020000040015e5
:047e4800ffffff0039
:020000040000fa
:020000040015e5
:047e5000deffff0052
:020000040000fa
:020000040015e5
:047e5800ffffff0029
:020000040000fa
:020000040100f9
:04300000ffffff00cf
:00000001FF
